{
  "contractName": "MyCoin",
  "abi": [
    {
      "constant": true,
      "inputs": [],
      "name": "isAdminSet",
      "outputs": [
        {
          "name": "",
          "type": "bool"
        }
      ],
      "payable": false,
      "stateMutability": "view",
      "type": "function"
    },
    {
      "constant": true,
      "inputs": [],
      "name": "name",
      "outputs": [
        {
          "name": "",
          "type": "string"
        }
      ],
      "payable": false,
      "stateMutability": "view",
      "type": "function"
    },
    {
      "constant": true,
      "inputs": [
        {
          "name": "",
          "type": "uint256"
        }
      ],
      "name": "transfer",
      "outputs": [
        {
          "name": "from",
          "type": "address"
        },
        {
          "name": "value",
          "type": "uint256"
        },
        {
          "name": "to",
          "type": "address"
        },
        {
          "name": "status",
          "type": "int256"
        },
        {
          "name": "txnId",
          "type": "uint256"
        }
      ],
      "payable": false,
      "stateMutability": "view",
      "type": "function"
    },
    {
      "constant": true,
      "inputs": [],
      "name": "standard",
      "outputs": [
        {
          "name": "",
          "type": "string"
        }
      ],
      "payable": false,
      "stateMutability": "view",
      "type": "function"
    },
    {
      "constant": true,
      "inputs": [],
      "name": "allTransactions_count",
      "outputs": [
        {
          "name": "",
          "type": "uint256"
        }
      ],
      "payable": false,
      "stateMutability": "view",
      "type": "function"
    },
    {
      "constant": true,
      "inputs": [
        {
          "name": "",
          "type": "address"
        }
      ],
      "name": "balanceOf",
      "outputs": [
        {
          "name": "",
          "type": "uint256"
        }
      ],
      "payable": false,
      "stateMutability": "view",
      "type": "function"
    },
    {
      "constant": true,
      "inputs": [],
      "name": "symbol",
      "outputs": [
        {
          "name": "",
          "type": "string"
        }
      ],
      "payable": false,
      "stateMutability": "view",
      "type": "function"
    },
    {
      "constant": true,
      "inputs": [
        {
          "name": "",
          "type": "uint256"
        }
      ],
      "name": "allTransactions",
      "outputs": [
        {
          "name": "from",
          "type": "address"
        },
        {
          "name": "value",
          "type": "uint256"
        },
        {
          "name": "to",
          "type": "address"
        },
        {
          "name": "status",
          "type": "int256"
        },
        {
          "name": "txnId",
          "type": "uint256"
        }
      ],
      "payable": false,
      "stateMutability": "view",
      "type": "function"
    },
    {
      "constant": true,
      "inputs": [],
      "name": "transfer_count",
      "outputs": [
        {
          "name": "",
          "type": "uint256"
        }
      ],
      "payable": false,
      "stateMutability": "view",
      "type": "function"
    },
    {
      "constant": true,
      "inputs": [],
      "name": "admin",
      "outputs": [
        {
          "name": "",
          "type": "address"
        }
      ],
      "payable": false,
      "stateMutability": "view",
      "type": "function"
    },
    {
      "inputs": [
        {
          "name": "_initialSupply",
          "type": "uint256"
        }
      ],
      "payable": false,
      "stateMutability": "nonpayable",
      "type": "constructor"
    },
    {
      "constant": false,
      "inputs": [],
      "name": "setAdmin",
      "outputs": [],
      "payable": false,
      "stateMutability": "nonpayable",
      "type": "function"
    },
    {
      "constant": false,
      "inputs": [],
      "name": "reset",
      "outputs": [],
      "payable": false,
      "stateMutability": "nonpayable",
      "type": "function"
    },
    {
      "constant": false,
      "inputs": [],
      "name": "refillCoin",
      "outputs": [],
      "payable": false,
      "stateMutability": "nonpayable",
      "type": "function"
    },
    {
      "constant": false,
      "inputs": [
        {
          "name": "_newAdmin",
          "type": "address"
        }
      ],
      "name": "changeAdmin",
      "outputs": [],
      "payable": false,
      "stateMutability": "nonpayable",
      "type": "function"
    },
    {
      "constant": false,
      "inputs": [
        {
          "name": "_value",
          "type": "uint256"
        },
        {
          "name": "_to",
          "type": "address"
        }
      ],
      "name": "transferCoin",
      "outputs": [],
      "payable": false,
      "stateMutability": "nonpayable",
      "type": "function"
    },
    {
      "constant": false,
      "inputs": [
        {
          "name": "_value",
          "type": "uint256"
        }
      ],
      "name": "requestCoin",
      "outputs": [],
      "payable": false,
      "stateMutability": "nonpayable",
      "type": "function"
    },
    {
      "constant": false,
      "inputs": [
        {
          "name": "_no",
          "type": "uint256"
        }
      ],
      "name": "acceptTransaction",
      "outputs": [],
      "payable": false,
      "stateMutability": "nonpayable",
      "type": "function"
    },
    {
      "constant": false,
      "inputs": [
        {
          "name": "_no",
          "type": "uint256"
        }
      ],
      "name": "rejectTransaction",
      "outputs": [],
      "payable": false,
      "stateMutability": "nonpayable",
      "type": "function"
    }
  ],
  "bytecode": "0x60806040526000600360146101000a81548160ff0219169083151502179055503480156200002c57600080fd5b506040516020806200178d833981018060405281019080805190602001909291905050506040805190810160405280600781526020017f4d7920436f696e00000000000000000000000000000000000000000000000000815250600090805190602001906200009d92919062000151565b506040805190810160405280600681526020017f4d79436f696e000000000000000000000000000000000000000000000000000081525060019080519060200190620000eb92919062000151565b506040805190810160405280600c81526020017f4d7920436f696e2056312e300000000000000000000000000000000000000000815250600290805190602001906200013992919062000151565b50600060068190555060006008819055505062000200565b828054600181600116156101000203166002900490600052602060002090601f016020900481019282601f106200019457805160ff1916838001178555620001c5565b82800160010185558215620001c5579182015b82811115620001c4578251825591602001919060010190620001a7565b5b509050620001d49190620001d8565b5090565b620001fd91905b80821115620001f9576000816000905550600101620001df565b5090565b90565b61157d80620002106000396000f3006080604052600436106100fc576000357c0100000000000000000000000000000000000000000000000000000000900463ffffffff16806301b057b11461010157806305bf37aa1461013057806306fdde031461015d57806312514bba146101ed5780632cae2096146102a257806339eb9dd9146102b95780635a3b7e42146103065780636552ecbe14610396578063659d97ad146103c157806370a08231146103ee5780638f2839701461044557806395d89b4114610488578063a9dd689514610518578063d7ff071414610545578063d826f88f146105fa578063ea23c76e14610611578063f851a4401461063c578063fee1124514610693575b600080fd5b34801561010d57600080fd5b506101166106aa565b604051808215151515815260200191505060405180910390f35b34801561013c57600080fd5b5061015b600480360381019080803590602001909291905050506106bd565b005b34801561016957600080fd5b5061017261079d565b6040518080602001828103825283818151815260200191508051906020019080838360005b838110156101b2578082015181840152602081019050610197565b50505050905090810190601f1680156101df5780820380516001836020036101000a031916815260200191505b509250505060405180910390f35b3480156101f957600080fd5b506102186004803603810190808035906020019092919050505061083b565b604051808673ffffffffffffffffffffffffffffffffffffffff1673ffffffffffffffffffffffffffffffffffffffff1681526020018581526020018473ffffffffffffffffffffffffffffffffffffffff1673ffffffffffffffffffffffffffffffffffffffff1681526020018381526020018281526020019550505050505060405180910390f35b3480156102ae57600080fd5b506102b76108b1565b005b3480156102c557600080fd5b5061030460048036038101908080359060200190929190803573ffffffffffffffffffffffffffffffffffffffff169060200190929190505050610978565b005b34801561031257600080fd5b5061031b610ba0565b6040518080602001828103825283818151815260200191508051906020019080838360005b8381101561035b578082015181840152602081019050610340565b50505050905090810190601f1680156103885780820380516001836020036101000a031916815260200191505b509250505060405180910390f35b3480156103a257600080fd5b506103ab610c3e565b6040518082815260200191505060405180910390f35b3480156103cd57600080fd5b506103ec60048036038101908080359060200190929190505050610c44565b005b3480156103fa57600080fd5b5061042f600480360381019080803573ffffffffffffffffffffffffffffffffffffffff169060200190929190505050610e72565b6040518082815260200191505060405180910390f35b34801561045157600080fd5b50610486600480360381019080803573ffffffffffffffffffffffffffffffffffffffff169060200190929190505050610e8a565b005b34801561049457600080fd5b5061049d611052565b6040518080602001828103825283818151815260200191508051906020019080838360005b838110156104dd5780820151818401526020810190506104c2565b50505050905090810190601f16801561050a5780820380516001836020036101000a031916815260200191505b509250505060405180910390f35b34801561052457600080fd5b50610543600480360381019080803590602001909291905050506110f0565b005b34801561055157600080fd5b506105706004803603810190808035906020019092919050505061137a565b604051808673ffffffffffffffffffffffffffffffffffffffff1673ffffffffffffffffffffffffffffffffffffffff1681526020018581526020018473ffffffffffffffffffffffffffffffffffffffff1673ffffffffffffffffffffffffffffffffffffffff1681526020018381526020018281526020019550505050505060405180910390f35b34801561060657600080fd5b5061060f6113f0565b005b34801561061d57600080fd5b5061062661145e565b6040518082815260200191505060405180910390f35b34801561064857600080fd5b50610651611464565b604051808273ffffffffffffffffffffffffffffffffffffffff1673ffffffffffffffffffffffffffffffffffffffff16815260200191505060405180910390f35b34801561069f57600080fd5b506106a861148a565b005b600360149054906101000a900460ff1681565b600360009054906101000a900473ffffffffffffffffffffffffffffffffffffffff1673ffffffffffffffffffffffffffffffffffffffff163373ffffffffffffffffffffffffffffffffffffffff1614151561071957600080fd5b6000811015151561072957600080fd5b600654811115151561073a57600080fd5b6000600560008381526020019081526020016000206003015414151561075f57600080fd5b7fffffffffffffffffffffffffffffffffffffffffffffffffffffffffffffffff600560008381526020019081526020016000206003018190555050565b60008054600181600116156101000203166002900480601f0160208091040260200160405190810160405280929190818152602001828054600181600116156101000203166002900480156108335780601f1061080857610100808354040283529160200191610833565b820191906000526020600020905b81548152906001019060200180831161081657829003601f168201915b505050505081565b60076020528060005260406000206000915090508060000160009054906101000a900473ffffffffffffffffffffffffffffffffffffffff16908060010154908060020160009054906101000a900473ffffffffffffffffffffffffffffffffffffffff16908060030154908060040154905085565b60001515600360149054906101000a900460ff1615151415156108d357600080fd5b620f4240600460003373ffffffffffffffffffffffffffffffffffffffff1673ffffffffffffffffffffffffffffffffffffffff1681526020019081526020016000208190555033600360006101000a81548173ffffffffffffffffffffffffffffffffffffffff021916908373ffffffffffffffffffffffffffffffffffffffff1602179055506001600360146101000a81548160ff021916908315150217905550565b60008211151561098757600080fd5b81600460003373ffffffffffffffffffffffffffffffffffffffff1673ffffffffffffffffffffffffffffffffffffffff16815260200190815260200160002054101515156109d557600080fd5b81600460003373ffffffffffffffffffffffffffffffffffffffff1673ffffffffffffffffffffffffffffffffffffffff1681526020019081526020016000206000828254039250508190555081600460008373ffffffffffffffffffffffffffffffffffffffff1673ffffffffffffffffffffffffffffffffffffffff1681526020019081526020016000206000828254019250508190555060a0604051908101604052803373ffffffffffffffffffffffffffffffffffffffff1681526020018381526020018273ffffffffffffffffffffffffffffffffffffffff1681526020016001815260200160085481525060076000600854815260200190815260200160002060008201518160000160006101000a81548173ffffffffffffffffffffffffffffffffffffffff021916908373ffffffffffffffffffffffffffffffffffffffff1602179055506020820151816001015560408201518160020160006101000a81548173ffffffffffffffffffffffffffffffffffffffff021916908373ffffffffffffffffffffffffffffffffffffffff16021790555060608201518160030155608082015181600401559050506008600081548092919060010191905055505050565b60028054600181600116156101000203166002900480601f016020809104026020016040519081016040528092919081815260200182805460018160011615610100020316600290048015610c365780601f10610c0b57610100808354040283529160200191610c36565b820191906000526020600020905b815481529060010190602001808311610c1957829003601f168201915b505050505081565b60065481565b600360009054906101000a900473ffffffffffffffffffffffffffffffffffffffff1673ffffffffffffffffffffffffffffffffffffffff163373ffffffffffffffffffffffffffffffffffffffff1614151515610ca157600080fd5b600081111515610cb057600080fd5b8060046000600360009054906101000a900473ffffffffffffffffffffffffffffffffffffffff1673ffffffffffffffffffffffffffffffffffffffff1673ffffffffffffffffffffffffffffffffffffffff1681526020019081526020016000205410151515610d2057600080fd5b60a060405190810160405280600360009054906101000a900473ffffffffffffffffffffffffffffffffffffffff1673ffffffffffffffffffffffffffffffffffffffff1681526020018281526020013373ffffffffffffffffffffffffffffffffffffffff1681526020016000815260200160065481525060056000600654815260200190815260200160002060008201518160000160006101000a81548173ffffffffffffffffffffffffffffffffffffffff021916908373ffffffffffffffffffffffffffffffffffffffff1602179055506020820151816001015560408201518160020160006101000a81548173ffffffffffffffffffffffffffffffffffffffff021916908373ffffffffffffffffffffffffffffffffffffffff160217905550606082015181600301556080820151816004015590505060066000815480929190600101919050555050565b60046020528060005260406000206000915090505481565b600360009054906101000a900473ffffffffffffffffffffffffffffffffffffffff1673ffffffffffffffffffffffffffffffffffffffff163373ffffffffffffffffffffffffffffffffffffffff16141515610ee657600080fd5b600360009054906101000a900473ffffffffffffffffffffffffffffffffffffffff1673ffffffffffffffffffffffffffffffffffffffff168173ffffffffffffffffffffffffffffffffffffffff1614151515610f4357600080fd5b60046000600360009054906101000a900473ffffffffffffffffffffffffffffffffffffffff1673ffffffffffffffffffffffffffffffffffffffff1673ffffffffffffffffffffffffffffffffffffffff16815260200190815260200160002054600460008373ffffffffffffffffffffffffffffffffffffffff1673ffffffffffffffffffffffffffffffffffffffff16815260200190815260200160002081905550600060046000600360009054906101000a900473ffffffffffffffffffffffffffffffffffffffff1673ffffffffffffffffffffffffffffffffffffffff1673ffffffffffffffffffffffffffffffffffffffff1681526020019081526020016000208190555050565b60018054600181600116156101000203166002900480601f0160208091040260200160405190810160405280929190818152602001828054600181600116156101000203166002900480156110e85780601f106110bd576101008083540402835291602001916110e8565b820191906000526020600020905b8154815290600101906020018083116110cb57829003601f168201915b505050505081565b600360009054906101000a900473ffffffffffffffffffffffffffffffffffffffff1673ffffffffffffffffffffffffffffffffffffffff163373ffffffffffffffffffffffffffffffffffffffff1614151561114c57600080fd5b6000811015151561115c57600080fd5b600654811115151561116d57600080fd5b6000600560008381526020019081526020016000206001015411151561119257600080fd5b600060056000838152602001908152602001600020600301541415156111b757600080fd5b600560008281526020019081526020016000206001015460046000600360009054906101000a900473ffffffffffffffffffffffffffffffffffffffff1673ffffffffffffffffffffffffffffffffffffffff1673ffffffffffffffffffffffffffffffffffffffff168152602001908152602001600020541015151561123d57600080fd5b6005600082815260200190815260200160002060010154600460006005600085815260200190815260200160002060020160009054906101000a900473ffffffffffffffffffffffffffffffffffffffff1673ffffffffffffffffffffffffffffffffffffffff1673ffffffffffffffffffffffffffffffffffffffff16815260200190815260200160002060008282540192505081905550600560008281526020019081526020016000206001015460046000600360009054906101000a900473ffffffffffffffffffffffffffffffffffffffff1673ffffffffffffffffffffffffffffffffffffffff1673ffffffffffffffffffffffffffffffffffffffff168152602001908152602001600020600082825403925050819055506001600560008381526020019081526020016000206003018190555050565b60056020528060005260406000206000915090508060000160009054906101000a900473ffffffffffffffffffffffffffffffffffffffff16908060010154908060020160009054906101000a900473ffffffffffffffffffffffffffffffffffffffff16908060030154908060040154905085565b600360009054906101000a900473ffffffffffffffffffffffffffffffffffffffff1673ffffffffffffffffffffffffffffffffffffffff163373ffffffffffffffffffffffffffffffffffffffff1614151561144c57600080fd5b60006006819055506000600881905550565b60085481565b600360009054906101000a900473ffffffffffffffffffffffffffffffffffffffff1681565b600360009054906101000a900473ffffffffffffffffffffffffffffffffffffffff1673ffffffffffffffffffffffffffffffffffffffff163373ffffffffffffffffffffffffffffffffffffffff161415156114e657600080fd5b620f424060046000600360009054906101000a900473ffffffffffffffffffffffffffffffffffffffff1673ffffffffffffffffffffffffffffffffffffffff1673ffffffffffffffffffffffffffffffffffffffff168152602001908152602001600020819055505600a165627a7a723058204ee2e0bf668596d1f482bf2401489ce6f197dba04bc5241c130b1c4971dbeba70029",
  "source": "pragma solidity ^0.4.23;\r\n\r\ncontract MyCoin {\r\n\tstring public name;\r\n\tstring public symbol;\r\n\tstring public standard;\r\n\taddress public admin;\r\n\tbool public isAdminSet = false;\r\n\r\n\tmapping (address => uint) public balanceOf;\r\n\r\n\tmapping (uint => transaction) public allTransactions;\r\n\tuint public allTransactions_count;\r\n\r\n\tmapping (uint => transaction) public transfer;\r\n\tuint public transfer_count;\r\n\r\n\tstruct transaction {\r\n\t  address from;\r\n\t  uint value;\r\n\t  address to;\r\n\t  int status;\r\n\t  uint txnId;\r\n\t}\r\n\t\r\n\tfunction MyCoin(uint _initialSupply) public{\r\n\t\tname = \"My Coin\";\r\n\t\tsymbol = \"MyCoin\";\r\n\t\tstandard = \"My Coin V1.0\";\r\n\t\t//balanceOf[msg.sender] = _initialSupply;\r\n\t\t//admin = msg.sender;\r\n\t\tallTransactions_count = 0;\r\n\t\ttransfer_count = 0;\r\n\t}\r\n\r\n\tfunction setAdmin(){\r\n\t\trequire(isAdminSet==false);\r\n\t\tbalanceOf[msg.sender] = 1000000;\r\n\t\tadmin = msg.sender;\r\n\t\tisAdminSet = true;\r\n\t}\r\n\r\n\tfunction reset() public{\r\n\t\trequire(msg.sender==admin);\r\n\t\tallTransactions_count = 0;\r\n\t\ttransfer_count = 0;\r\n\t}\r\n\r\n\tfunction refillCoin() public{\r\n\t\trequire(msg.sender==admin);\r\n\t\tbalanceOf[admin] = 1000000;\r\n\t}\r\n\r\n\tfunction changeAdmin(address _newAdmin) public{\r\n\t\trequire(msg.sender==admin);\r\n\t\trequire(_newAdmin!=admin);\r\n\t\tbalanceOf[_newAdmin] = balanceOf[admin];\r\n\t\tbalanceOf[admin] = 0;\r\n\t}\r\n\r\n\tfunction transferCoin(uint _value,address _to) public{\r\n\t\trequire (_value>0);\r\n\t\trequire (balanceOf[msg.sender]>=_value);\r\n\t\tbalanceOf[msg.sender] -= _value;\r\n\t\tbalanceOf[_to] += _value;\r\n\t\ttransfer[transfer_count] = transaction(msg.sender,_value,_to,1,transfer_count);\r\n\t\ttransfer_count++;\r\n\t\t//TransferCoin(msg.sender,_value,_to);\r\n\t}\r\n\r\n\tfunction requestCoin(uint _value) public{\r\n\t\trequire(msg.sender!=admin);\r\n\t\trequire (_value>0);\r\n\t\trequire (balanceOf[admin]>=_value);\r\n\t\tallTransactions[allTransactions_count] = transaction(admin,_value,msg.sender,0,allTransactions_count);\r\n\t\tallTransactions_count++;\r\n\t\t//RequestCoin(msg.sender,_value);\r\n\t}\r\n\r\n\tfunction acceptTransaction(uint _no) public{\r\n\t\trequire(msg.sender==admin);\r\n\t\trequire(_no>=0);\r\n\t\trequire(_no<=allTransactions_count);\r\n\t\trequire(allTransactions[_no].value>0);\r\n\t\trequire(allTransactions[_no].status==0);\r\n\t\trequire(balanceOf[admin]>=allTransactions[_no].value);\r\n\r\n\t\tbalanceOf[allTransactions[_no].to] += allTransactions[_no].value;\r\n\t\tbalanceOf[admin] -= allTransactions[_no].value;\r\n\t\tallTransactions[_no].status = 1;\r\n\t}\r\n\r\n\tfunction rejectTransaction(uint _no) public{\r\n\t\trequire(msg.sender==admin);\r\n\t\trequire(_no>=0);\r\n\t\trequire(_no<=allTransactions_count);\r\n\t\trequire(allTransactions[_no].status==0);\r\n\t\tallTransactions[_no].status = -1;\r\n\t}\r\n\t\r\n}\r\n",
  "sourcePath": "E:\\ethereum\\demo\\contracts\\MyCoin.sol",
  "compiler": {
    "name": "solc",
    "version": "0.4.24+commit.e67f0147.Emscripten.clang"
  },
  "schemaVersion": "2.0.1",
  "updatedAt": "2018-09-23T21:11:26.696Z"
}